{
  "contractName": "Ex4",
  "abi": [
    {
      "inputs": [
        {
          "internalType": "int256",
          "name": "number",
          "type": "int256"
        }
      ],
      "name": "isPositive",
      "outputs": [
        {
          "internalType": "bool",
          "name": "",
          "type": "bool"
        }
      ],
      "stateMutability": "pure",
      "type": "function",
      "constant": true
    }
  ],
  "bytecode": "0x6080604052348015600f57600080fd5b5060a18061001e6000396000f3fe6080604052348015600f57600080fd5b506004361060285760003560e01c806314df114a14602d575b600080fd5b603f60383660046053565b6000131590565b604051901515815260200160405180910390f35b600060208284031215606457600080fd5b503591905056fea26469706673582212204692c1dc71260af104438c841cac825894837e65faa5e222d445fa98827ec2e764736f6c63430008130033",
  "immutableReferences": {},
  "source": "// SPDX-License-Identifier: MIT\npragma solidity ^0.8.0;\n\ncontract Ex4 {\n    function isPositive(int number) public pure returns (bool) {\n        return number >= 0;\n    }\n}\n",
  "sourcePath": "/home/ielayade/MUS/blockchain/exam/smart-contracts/contracts/Ex4.sol",
  "compiler": {
    "name": "solc",
    "version": "0.8.19+commit.7dd6d404.Emscripten.clang"
  },
  "schemaVersion": "3.4.16",
  "updatedAt": "2025-05-10T22:31:46.628Z",
  "networkType": "ethereum",
  "devdoc": {
    "kind": "dev",
    "methods": {},
    "version": 1
  },
  "userdoc": {
    "kind": "user",
    "methods": {},
    "version": 1
  }
}