{
  "contractName": "Ex2",
  "abi": [
    {
      "inputs": [
        {
          "internalType": "uint256",
          "name": "ethAmount",
          "type": "uint256"
        }
      ],
      "name": "toWei",
      "outputs": [
        {
          "internalType": "uint256",
          "name": "",
          "type": "uint256"
        }
      ],
      "stateMutability": "pure",
      "type": "function",
      "constant": true
    },
    {
      "inputs": [
        {
          "internalType": "uint256",
          "name": "ethAmount",
          "type": "uint256"
        }
      ],
      "name": "toGwei",
      "outputs": [
        {
          "internalType": "uint256",
          "name": "",
          "type": "uint256"
        }
      ],
      "stateMutability": "pure",
      "type": "function",
      "constant": true
    }
  ],
  "bytecode": "0x608060405234801561001057600080fd5b5060ff8061001f6000396000f3fe6080604052348015600f57600080fd5b506004361060325760003560e01c80633c20fc89146037578063669dafe8146058575b600080fd5b60466042366004608d565b6067565b60405190815260200160405180910390f35b60466063366004608d565b607b565b6000607582633b9aca0060a5565b92915050565b6000607582670de0b6b3a764000060a5565b600060208284031215609e57600080fd5b5035919050565b8082028115828204841417607557634e487b7160e01b600052601160045260246000fdfea2646970667358221220cb405495c75e91c80bbbf032de70a27bae2756a02fa8159382264f17048d9e5264736f6c63430008130033",
  "immutableReferences": {},
  "source": "// SPDX-License-Identifier: MIT\npragma solidity ^0.8.0;\n\ncontract Ex2 {\n    function toWei(uint ethAmount) public pure returns (uint) {\n        return ethAmount * 1 ether;\n    }\n\n    function toGwei(uint ethAmount) public pure returns (uint) {\n        return ethAmount * 1 gwei;\n    }\n}",
  "sourcePath": "/home/ielayade/MUS/blockchain/exam/smart-contracts/contracts/Ex2.sol",
  "compiler": {
    "name": "solc",
    "version": "0.8.19+commit.7dd6d404.Emscripten.clang"
  },
  "schemaVersion": "3.4.16",
  "updatedAt": "2025-05-14T17:42:12.699Z",
  "networkType": "ethereum",
  "devdoc": {
    "kind": "dev",
    "methods": {},
    "version": 1
  },
  "userdoc": {
    "kind": "user",
    "methods": {},
    "version": 1
  }
}