{
  "contractName": "Ex3",
  "abi": [
    {
      "inputs": [],
      "name": "storedString",
      "outputs": [
        {
          "internalType": "string",
          "name": "",
          "type": "string"
        }
      ],
      "stateMutability": "view",
      "type": "function",
      "constant": true
    },
    {
      "inputs": [
        {
          "internalType": "string",
          "name": "str",
          "type": "string"
        }
      ],
      "name": "setString",
      "outputs": [],
      "stateMutability": "nonpayable",
      "type": "function"
    },
    {
      "inputs": [],
      "name": "getLength",
      "outputs": [
        {
          "internalType": "uint256",
          "name": "",
          "type": "uint256"
        }
      ],
      "stateMutability": "view",
      "type": "function",
      "constant": true
    },
    {
      "inputs": [],
      "name": "getFirstChar",
      "outputs": [
        {
          "internalType": "bytes1",
          "name": "",
          "type": "bytes1"
        }
      ],
      "stateMutability": "view",
      "type": "function",
      "constant": true
    }
  ],
  "bytecode": "0x608060405234801561001057600080fd5b50610463806100206000396000f3fe608060405234801561001057600080fd5b506004361061004c5760003560e01c806302dd56d0146100515780632d0f18c41461006f5780637fcaf66614610090578063be1c766b146100a5575b600080fd5b6100596100bb565b60405161006691906101b9565b60405180910390f35b610077610149565b6040516001600160f81b03199091168152602001610066565b6100a361009e36600461021d565b610195565b005b6100ad6101a5565b604051908152602001610066565b600080546100c8906102ce565b80601f01602080910402602001604051908101604052809291908181526020018280546100f4906102ce565b80156101415780601f1061011657610100808354040283529160200191610141565b820191906000526020600020905b81548152906001019060200180831161012457829003601f168201915b505050505081565b60008060008154610159906102ce565b811061016757610167610308565b8154600116156101865790600052602060002090602091828204019190065b9054901a600160f81b02905090565b60006101a1828261036d565b5050565b60008080546101b3906102ce565b92915050565b600060208083528351808285015260005b818110156101e6578581018301518582016040015282016101ca565b506000604082860101526040601f19601f8301168501019250505092915050565b634e487b7160e01b600052604160045260246000fd5b60006020828403121561022f57600080fd5b813567ffffffffffffffff8082111561024757600080fd5b818401915084601f83011261025b57600080fd5b81358181111561026d5761026d610207565b604051601f8201601f19908116603f0116810190838211818310171561029557610295610207565b816040528281528760208487010111156102ae57600080fd5b826020860160208301376000928101602001929092525095945050505050565b600181811c908216806102e257607f821691505b60208210810361030257634e487b7160e01b600052602260045260246000fd5b50919050565b634e487b7160e01b600052603260045260246000fd5b601f82111561036857600081815260208120601f850160051c810160208610156103455750805b601f850160051c820191505b8181101561036457828155600101610351565b5050505b505050565b815167ffffffffffffffff81111561038757610387610207565b61039b8161039584546102ce565b8461031e565b602080601f8311600181146103d057600084156103b85750858301515b600019600386901b1c1916600185901b178555610364565b600085815260208120601f198616915b828110156103ff578886015182559484019460019091019084016103e0565b508582101561041d5787850151600019600388901b60f8161c191681555b5050505050600190811b0190555056fea2646970667358221220e09576dbc61c30fe1007462912d5a0200894100219051d8145560bf955b6652b64736f6c63430008130033",
  "immutableReferences": {},
  "source": "// SPDX-License-Identifier: MIT\npragma solidity ^0.8.0;\n\ncontract Ex3 {\n    string public storedString;\n\n    function setString(string memory str) public {\n        storedString = str;\n    }\n\n    function getLength() public view returns (uint) {\n        return bytes(storedString).length;\n    }\n\n    function getFirstChar() public view returns (bytes1) {\n        return bytes(storedString)[0];\n    }\n}\n",
  "sourcePath": "/home/ielayade/MUS/blockchain/exam/smart-contracts/contracts/Ex3.sol",
  "compiler": {
    "name": "solc",
    "version": "0.8.19+commit.7dd6d404.Emscripten.clang"
  },
  "schemaVersion": "3.4.16",
  "updatedAt": "2025-05-14T17:42:12.700Z",
  "networkType": "ethereum",
  "devdoc": {
    "kind": "dev",
    "methods": {},
    "version": 1
  },
  "userdoc": {
    "kind": "user",
    "methods": {},
    "version": 1
  }
}