{
  "contractName": "Ex6",
  "abi": [
    {
      "inputs": [
        {
          "internalType": "uint256",
          "name": "",
          "type": "uint256"
        }
      ],
      "name": "numbers",
      "outputs": [
        {
          "internalType": "uint256",
          "name": "",
          "type": "uint256"
        }
      ],
      "stateMutability": "view",
      "type": "function",
      "constant": true
    },
    {
      "inputs": [
        {
          "internalType": "uint256",
          "name": "n",
          "type": "uint256"
        }
      ],
      "name": "addNumber",
      "outputs": [],
      "stateMutability": "nonpayable",
      "type": "function"
    },
    {
      "inputs": [],
      "name": "getAll",
      "outputs": [
        {
          "internalType": "uint256[]",
          "name": "",
          "type": "uint256[]"
        }
      ],
      "stateMutability": "view",
      "type": "function",
      "constant": true
    },
    {
      "inputs": [
        {
          "internalType": "uint256",
          "name": "index",
          "type": "uint256"
        }
      ],
      "name": "getAt",
      "outputs": [
        {
          "internalType": "uint256",
          "name": "",
          "type": "uint256"
        }
      ],
      "stateMutability": "view",
      "type": "function",
      "constant": true
    }
  ],
  "bytecode": "0x608060405234801561001057600080fd5b5061026e806100206000396000f3fe608060405234801561001057600080fd5b506004361061004c5760003560e01c8063303eaeed1461005157806353ed514314610077578063d39fa2331461008c578063fce680231461009f575b600080fd5b61006461005f3660046101c5565b6100e1565b6040519081526020015b60405180910390f35b61007f61014c565b60405161006e91906101de565b61006461009a3660046101c5565b6101a4565b6100df6100ad3660046101c5565b600080546001810182559080527f290decd9548b62a8d60345a988386fc84ba6bc95484008f6362f93160ef3e5630155565b005b6000805482106101275760405162461bcd60e51b815260206004820152600d60248201526c4f7574206f6620626f756e647360981b604482015260640160405180910390fd5b6000828154811061013a5761013a610222565b90600052602060002001549050919050565b6060600080548060200260200160405190810160405280929190818152602001828054801561019a57602002820191906000526020600020905b815481526020019060010190808311610186575b5050505050905090565b600081815481106101b457600080fd5b600091825260209091200154905081565b6000602082840312156101d757600080fd5b5035919050565b6020808252825182820181905260009190848201906040850190845b81811015610216578351835292840192918401916001016101fa565b50909695505050505050565b634e487b7160e01b600052603260045260246000fdfea26469706673582212208daef7f6992f12ec06e33119bf04e664d9c84f0a3ee1fb827af4d8a6e416b82764736f6c63430008130033",
  "immutableReferences": {},
  "source": "// SPDX-License-Identifier: MIT\npragma solidity ^0.8.0;\n\ncontract Ex6 {\n    uint[] public numbers;\n\n    function addNumber(uint n) public {\n        numbers.push(n);\n    }\n\n    function getAll() public view returns (uint[] memory) {\n        return numbers;\n    }\n\n    function getAt(uint index) public view returns (uint) {\n        require(index < numbers.length, \"Out of bounds\");\n        return numbers[index];\n    }\n}\n",
  "sourcePath": "/home/ielayade/MUS/blockchain/exam/smart-contracts/contracts/Ex6.sol",
  "compiler": {
    "name": "solc",
    "version": "0.8.19+commit.7dd6d404.Emscripten.clang"
  },
  "schemaVersion": "3.4.16",
  "updatedAt": "2025-05-14T17:42:12.702Z",
  "networkType": "ethereum",
  "devdoc": {
    "kind": "dev",
    "methods": {},
    "version": 1
  },
  "userdoc": {
    "kind": "user",
    "methods": {},
    "version": 1
  }
}