{
  "contractName": "Ex8",
  "abi": [
    {
      "inputs": [],
      "name": "lastSender",
      "outputs": [
        {
          "internalType": "address",
          "name": "",
          "type": "address"
        }
      ],
      "stateMutability": "view",
      "type": "function",
      "constant": true
    },
    {
      "inputs": [],
      "name": "lastValue",
      "outputs": [
        {
          "internalType": "uint256",
          "name": "",
          "type": "uint256"
        }
      ],
      "stateMutability": "view",
      "type": "function",
      "constant": true
    },
    {
      "inputs": [],
      "name": "sendEther",
      "outputs": [],
      "stateMutability": "payable",
      "type": "function",
      "payable": true
    }
  ],
  "bytecode": "0x608060405234801561001057600080fd5b5060e38061001f6000396000f3fe60806040526004361060305760003560e01c80630e29df22146035578063256fec881460515780634318383414608c575b600080fd5b604f600080546001600160a01b0319163317905534600155565b005b348015605c57600080fd5b50600054606f906001600160a01b031681565b6040516001600160a01b0390911681526020015b60405180910390f35b348015609757600080fd5b5060a060015481565b604051908152602001608356fea2646970667358221220c55ec7b5e90917bfd08dc93473f28600bc3c363d989a83f10950e45b09ee9fb164736f6c63430008130033",
  "immutableReferences": {},
  "source": "// SPDX-License-Identifier: MIT\npragma solidity ^0.8.0;\n\ncontract Ex8 {\n    address public lastSender;\n    uint public lastValue;\n\n    function sendEther() public payable {\n        lastSender = msg.sender;\n        lastValue = msg.value;\n    }\n}",
  "sourcePath": "/home/ielayade/MUS/blockchain/exam/smart-contracts/contracts/Ex8.sol",
  "compiler": {
    "name": "solc",
    "version": "0.8.19+commit.7dd6d404.Emscripten.clang"
  },
  "schemaVersion": "3.4.16",
  "updatedAt": "2025-05-14T17:42:12.702Z",
  "networkType": "ethereum",
  "devdoc": {
    "kind": "dev",
    "methods": {},
    "version": 1
  },
  "userdoc": {
    "kind": "user",
    "methods": {},
    "version": 1
  }
}