{
  "contractName": "Rectangle",
  "abi": [
    {
      "inputs": [
        {
          "internalType": "uint256",
          "name": "_w",
          "type": "uint256"
        },
        {
          "internalType": "uint256",
          "name": "_h",
          "type": "uint256"
        }
      ],
      "stateMutability": "nonpayable",
      "type": "constructor"
    },
    {
      "inputs": [],
      "name": "area",
      "outputs": [
        {
          "internalType": "uint256",
          "name": "",
          "type": "uint256"
        }
      ],
      "stateMutability": "view",
      "type": "function",
      "constant": true
    }
  ],
  "bytecode": "0x608060405234801561001057600080fd5b5060405161012938038061012983398101604081905261002f9161003d565b600091909155600155610061565b6000806040838503121561005057600080fd5b505080516020909101519092909150565b60ba8061006f6000396000f3fe6080604052348015600f57600080fd5b506004361060285760003560e01c80634d41892f14602d575b600080fd5b60336045565b60405190815260200160405180910390f35b600060015460005460559190605a565b905090565b8082028115828204841417607e57634e487b7160e01b600052601160045260246000fd5b9291505056fea264697066735822122009db01400448b677745dcede634c4ba23b6974230a71333c29e2998630438a7264736f6c63430008130033",
  "immutableReferences": {},
  "source": "// SPDX-License-Identifier: MIT\npragma solidity ^0.8.0;\n\nabstract contract Shape {\n    function area() public view virtual returns (uint);\n}\n\ncontract Rectangle is Shape {\n    uint width;\n    uint height;\n\n    constructor(uint _w, uint _h) {\n        width = _w;\n        height = _h;\n    }\n\n    function area() public view override returns (uint) {\n        return width * height;\n    }\n}\n",
  "sourcePath": "/home/ielayade/MUS/blockchain/exam/smart-contracts/contracts/Ex7.sol",
  "compiler": {
    "name": "solc",
    "version": "0.8.19+commit.7dd6d404.Emscripten.clang"
  },
  "schemaVersion": "3.4.16",
  "updatedAt": "2025-05-14T17:42:12.702Z",
  "networkType": "ethereum",
  "devdoc": {
    "kind": "dev",
    "methods": {},
    "version": 1
  },
  "userdoc": {
    "kind": "user",
    "methods": {},
    "version": 1
  }
}